{
  "contractName": "Grains",
  "abi": [
    {
      "constant": true,
      "inputs": [
        {
          "name": "",
          "type": "address"
        }
      ],
      "name": "people",
      "outputs": [
        {
          "name": "name",
          "type": "bytes32"
        },
        {
          "name": "accType",
          "type": "bytes32"
        },
        {
          "name": "holdings",
          "type": "uint256"
        },
        {
          "name": "balance",
          "type": "uint256"
        },
        {
          "name": "priceQuoted",
          "type": "uint256"
        }
      ],
      "payable": false,
      "stateMutability": "view",
      "type": "function"
    },
    {
      "constant": true,
      "inputs": [
        {
          "name": "",
          "type": "uint256"
        }
      ],
      "name": "addressList",
      "outputs": [
        {
          "name": "",
          "type": "address"
        }
      ],
      "payable": false,
      "stateMutability": "view",
      "type": "function"
    },
    {
      "constant": true,
      "inputs": [],
      "name": "centralGovt",
      "outputs": [
        {
          "name": "",
          "type": "address"
        }
      ],
      "payable": false,
      "stateMutability": "view",
      "type": "function"
    },
    {
      "inputs": [],
      "payable": false,
      "stateMutability": "nonpayable",
      "type": "constructor"
    },
    {
      "constant": false,
      "inputs": [
        {
          "name": "_from",
          "type": "address"
        },
        {
          "name": "_qty",
          "type": "uint256"
        }
      ],
      "name": "buyGrains",
      "outputs": [
        {
          "name": "success",
          "type": "bool"
        }
      ],
      "payable": false,
      "stateMutability": "nonpayable",
      "type": "function"
    },
    {
      "constant": true,
      "inputs": [
        {
          "name": "_user",
          "type": "address"
        }
      ],
      "name": "getPerson",
      "outputs": [
        {
          "name": "",
          "type": "bytes32"
        },
        {
          "name": "",
          "type": "bytes32"
        },
        {
          "name": "",
          "type": "uint256"
        },
        {
          "name": "",
          "type": "uint256"
        },
        {
          "name": "",
          "type": "uint256"
        }
      ],
      "payable": false,
      "stateMutability": "view",
      "type": "function"
    },
    {
      "constant": true,
      "inputs": [],
      "name": "getCurrentPerson",
      "outputs": [
        {
          "name": "",
          "type": "bytes32"
        },
        {
          "name": "",
          "type": "bytes32"
        },
        {
          "name": "",
          "type": "uint256"
        },
        {
          "name": "",
          "type": "uint256"
        },
        {
          "name": "",
          "type": "uint256"
        }
      ],
      "payable": false,
      "stateMutability": "view",
      "type": "function"
    },
    {
      "constant": false,
      "inputs": [
        {
          "name": "_myAddress",
          "type": "address"
        },
        {
          "name": "_firstName",
          "type": "bytes32"
        },
        {
          "name": "_accType",
          "type": "bytes32"
        },
        {
          "name": "_holdings",
          "type": "uint256"
        },
        {
          "name": "_balance",
          "type": "uint256"
        },
        {
          "name": "_priceQuoted",
          "type": "uint256"
        }
      ],
      "name": "addPerson",
      "outputs": [
        {
          "name": "success",
          "type": "bool"
        }
      ],
      "payable": false,
      "stateMutability": "nonpayable",
      "type": "function"
    }
  ],
  "bytecode": "0x6060604052341561000f57600080fd5b336000806101000a81548173ffffffffffffffffffffffffffffffffffffffff021916908373ffffffffffffffffffffffffffffffffffffffff16021790555060a0604051908101604052807f4e6172656e647261204d6f6469000000000000000000000000000000000000006000191681526020017f43656e74726500000000000000000000000000000000000000000000000000006000191681526020016000815260200162124f8081526020016000815250600160008060009054906101000a900473ffffffffffffffffffffffffffffffffffffffff1673ffffffffffffffffffffffffffffffffffffffff1673ffffffffffffffffffffffffffffffffffffffff16815260200190815260200160002060008201518160000190600019169055602082015181600101906000191690556040820151816002015560608201518160030155608082015181600401559050506002805480600101828161017991906101cd565b9160005260206000209001600033909190916101000a81548173ffffffffffffffffffffffffffffffffffffffff021916908373ffffffffffffffffffffffffffffffffffffffff1602179055505061021e565b8154818355818115116101f4578183600052602060002091820191016101f391906101f9565b5b505050565b61021b91905b808211156102175760008160009055506001016101ff565b5090565b90565b610afe8061022d6000396000f300606060405260043610610083576000357c0100000000000000000000000000000000000000000000000000000000900463ffffffff16806307de97351461008857806310de513f14610101578063552d2d5c1461015b5780639d66c2bb146101d4578063b810fb4314610229578063ba5445661461028c578063cbed1449146102e1575b600080fd5b341561009357600080fd5b6100bf600480803573ffffffffffffffffffffffffffffffffffffffff16906020019091905050610367565b60405180866000191660001916815260200185600019166000191681526020018481526020018381526020018281526020019550505050505060405180910390f35b341561010c57600080fd5b610141600480803573ffffffffffffffffffffffffffffffffffffffff1690602001909190803590602001909190505061039d565b604051808215151515815260200191505060405180910390f35b341561016657600080fd5b610192600480803573ffffffffffffffffffffffffffffffffffffffff169060200190919050506105d2565b60405180866000191660001916815260200185600019166000191681526020018481526020018381526020018281526020019550505050505060405180910390f35b34156101df57600080fd5b6101e761073c565b60405180866000191660001916815260200185600019166000191681526020018481526020018381526020018281526020019550505050505060405180910390f35b341561023457600080fd5b61024a60048080359060200190919050506108a4565b604051808273ffffffffffffffffffffffffffffffffffffffff1673ffffffffffffffffffffffffffffffffffffffff16815260200191505060405180910390f35b341561029757600080fd5b61029f6108e3565b604051808273ffffffffffffffffffffffffffffffffffffffff1673ffffffffffffffffffffffffffffffffffffffff16815260200191505060405180910390f35b34156102ec57600080fd5b61034d600480803573ffffffffffffffffffffffffffffffffffffffff169060200190919080356000191690602001909190803560001916906020019091908035906020019091908035906020019091908035906020019091905050610908565b604051808215151515815260200191505060405180910390f35b60016020528060005260406000206000915090508060000154908060010154908060020154908060030154908060040154905085565b60008082600160008673ffffffffffffffffffffffffffffffffffffffff1673ffffffffffffffffffffffffffffffffffffffff1681526020019081526020016000206004015402905080600160003373ffffffffffffffffffffffffffffffffffffffff1673ffffffffffffffffffffffffffffffffffffffff168152602001908152602001600020600301541080610478575082600160008673ffffffffffffffffffffffffffffffffffffffff1673ffffffffffffffffffffffffffffffffffffffff16815260200190815260200160002060020154105b1561048657600091506105cb565b80600160003373ffffffffffffffffffffffffffffffffffffffff1673ffffffffffffffffffffffffffffffffffffffff1681526020019081526020016000206003016000828254039250508190555080600160008673ffffffffffffffffffffffffffffffffffffffff1673ffffffffffffffffffffffffffffffffffffffff1681526020019081526020016000206003016000828254019250508190555082600160003373ffffffffffffffffffffffffffffffffffffffff1673ffffffffffffffffffffffffffffffffffffffff1681526020019081526020016000206002016000828254019250508190555082600160008673ffffffffffffffffffffffffffffffffffffffff1673ffffffffffffffffffffffffffffffffffffffff16815260200190815260200160002060020160008282540392505081905550600191505b5092915050565b6000806000806000600160008773ffffffffffffffffffffffffffffffffffffffff1673ffffffffffffffffffffffffffffffffffffffff16815260200190815260200160002060000154600160008873ffffffffffffffffffffffffffffffffffffffff1673ffffffffffffffffffffffffffffffffffffffff16815260200190815260200160002060010154600160008973ffffffffffffffffffffffffffffffffffffffff1673ffffffffffffffffffffffffffffffffffffffff16815260200190815260200160002060020154600160008a73ffffffffffffffffffffffffffffffffffffffff1673ffffffffffffffffffffffffffffffffffffffff16815260200190815260200160002060030154600160008b73ffffffffffffffffffffffffffffffffffffffff1673ffffffffffffffffffffffffffffffffffffffff168152602001908152602001600020600401549450945094509450945091939590929450565b6000806000806000600160003373ffffffffffffffffffffffffffffffffffffffff1673ffffffffffffffffffffffffffffffffffffffff16815260200190815260200160002060000154600160003373ffffffffffffffffffffffffffffffffffffffff1673ffffffffffffffffffffffffffffffffffffffff16815260200190815260200160002060010154600160003373ffffffffffffffffffffffffffffffffffffffff1673ffffffffffffffffffffffffffffffffffffffff16815260200190815260200160002060020154600160003373ffffffffffffffffffffffffffffffffffffffff1673ffffffffffffffffffffffffffffffffffffffff16815260200190815260200160002060030154600160003373ffffffffffffffffffffffffffffffffffffffff1673ffffffffffffffffffffffffffffffffffffffff16815260200190815260200160002060040154945094509450945094509091929394565b6002818154811015156108b357fe5b90600052602060002090016000915054906101000a900473ffffffffffffffffffffffffffffffffffffffff1681565b6000809054906101000a900473ffffffffffffffffffffffffffffffffffffffff1681565b6000610912610a4b565b8681600001906000191690816000191681525050858160200190600019169081600019168152505084816040018181525050838160600181815250508281608001818152505080600160008a73ffffffffffffffffffffffffffffffffffffffff1673ffffffffffffffffffffffffffffffffffffffff1681526020019081526020016000206000820151816000019060001916905560208201518160010190600019169055604082015181600201556060820151816003015560808201518160040155905050600280548060010182816109ed9190610a81565b916000526020600020900160008a909190916101000a81548173ffffffffffffffffffffffffffffffffffffffff021916908373ffffffffffffffffffffffffffffffffffffffff1602179055505060019150509695505050505050565b60a06040519081016040528060008019168152602001600080191681526020016000815260200160008152602001600081525090565b815481835581811511610aa857818360005260206000209182019101610aa79190610aad565b5b505050565b610acf91905b80821115610acb576000816000905550600101610ab3565b5090565b905600a165627a7a723058200b650f19adb96b61cfdf0116d6235b12cd777e811549c41b835c1a92c7a2b4c10029",
  "source": " pragma solidity ^0.4.19;\n\ncontract Grains {\n\n  address public centralGovt;\n  struct Person {\n    bytes32 name;\n    bytes32 accType;\n    uint holdings; // in tonnes\n    uint balance; // their cash\n    uint priceQuoted; // in Rs. per tonnes\n  }\n  mapping (address => Person) public people;\n  address[] public addressList;\n  // constructor\n  // runs once per each contract creation\n  function Grains() public {\n    centralGovt = msg.sender;\n    /* Grains.Person admin =  */\n\n    people[centralGovt] = Person({\n            name : \"Narendra Modi\",\n            accType: \"Centre\",\n            holdings : 0,\n            balance : 1200000,\n            priceQuoted : 0\n        });\n    addressList.push(msg.sender);\n  }\n\n  // transfer balance to buy Grains in tonnes\n  function buyGrains(address _from, uint _qty) public returns (bool success){\n    uint _value = people[_from].priceQuoted * _qty;\n    if(people[msg.sender].balance < _value || people[_from].holdings < _qty){\n      return false;\n    }\n\n    people[msg.sender].balance -= _value;\n    people[_from].balance += _value;\n    people[msg.sender].holdings += _qty;\n    people[_from].holdings -= _qty;\n    return true;\n  }\n\n  // returns a single person based on the address\n  function getPerson(address _user) constant public returns(bytes32, bytes32, uint, uint, uint){\n    return(people[_user].name,people[_user].accType,people[_user].holdings,people[_user].balance,people[_user].priceQuoted);\n  }\n\n  function getCurrentPerson() constant public returns(bytes32, bytes32, uint, uint, uint){\n    return(people[msg.sender].name,people[msg.sender].accType,people[msg.sender].holdings,people[msg.sender].balance,people[msg.sender].priceQuoted);\n  }\n\n  function addPerson(address _myAddress, bytes32 _firstName , bytes32 _accType, uint _holdings, uint _balance, uint _priceQuoted) public returns (bool success) {\n    Person memory newPerson;\n    newPerson.name = _firstName;\n    newPerson.accType = _accType;\n    newPerson.holdings = _holdings;\n    newPerson.balance = _balance;\n    newPerson.priceQuoted = _priceQuoted;\n\n    people[_myAddress] = newPerson;\n    addressList.push(_myAddress);\n    return true;\n  }\n  /* function getPeople() constant public returns (bytes32[],bytes32[],uint[],uint[],uint[])  {\n\n    uint length = people.length;\n\n    bytes32[] memory names = new bytes32[](length);\n    bytes32[] memory accTypes = new bytes32[](length);\n    uint[] memory holdings = new uint[](length);\n    uint[] memory balances= new uint[](length);\n    uint[] memory pricesQuoted = new uint[](length);\n\n\n    for(uint i=0 ;i < people.length; i++){\n      Person memory currentPerson;\n      currentPerson = people[i];\n\n      firstNames[i] = currentPerson.firstName;\n      lastNames[i]= currentPerson.lastName;\n      ages[i] = currentPerson.age;\n    }\nreturn (firstNames, lastNames,ages);\n  } */\n\n\n}\n",
  "sourcePath": "/home/arjith/Documents/FYP/farmer-block/contracts/Grains.sol",
  "compiler": {
    "name": "solc",
    "version": "0.4.19+commit.c4cbbb05.Emscripten.clang"
  },
  "schemaVersion": "2.0.0",
  "updatedAt": "2018-07-26T08:56:08.977Z"
}